{"project/contracts/AnchorRegistry.sol":{"AnchorRegistry":{"abi":[{"anonymous":false,"inputs":[{"indexed":false,"internalType":"bytes32","name":"receiptHash","type":"bytes32"},{"indexed":false,"internalType":"bytes32","name":"subjectDigest","type":"bytes32"},{"indexed":false,"internalType":"bytes32","name":"anchorId","type":"bytes32"},{"indexed":false,"internalType":"address","name":"sender","type":"address"},{"indexed":false,"internalType":"uint256","name":"timestamp","type":"uint256"}],"name":"Anchored","type":"event"},{"inputs":[{"internalType":"bytes32","name":"receiptHash","type":"bytes32"}],"name":"anchor","outputs":[{"internalType":"bytes32","name":"anchorId","type":"bytes32"}],"stateMutability":"nonpayable","type":"function"},{"inputs":[{"internalType":"bytes32","name":"receiptHash","type":"bytes32"},{"internalType":"bytes32","name":"subjectDigest","type":"bytes32"}],"name":"anchorWithSubject","outputs":[{"internalType":"bytes32","name":"anchorId","type":"bytes32"}],"stateMutability":"nonpayable","type":"function"},{"inputs":[{"internalType":"bytes32","name":"receiptHash","type":"bytes32"}],"name":"isAnchored","outputs":[{"internalType":"bool","name":"","type":"bool"}],"stateMutability":"view","type":"function"},{"inputs":[{"internalType":"bytes32","name":"subjectDigest","type":"bytes32"}],"name":"isSubjectAnchored","outputs":[{"internalType":"bool","name":"","type":"bool"}],"stateMutability":"view","type":"function"},{"inputs":[{"internalType":"bytes32","name":"receiptHash","type":"bytes32"}],"name":"subjectForReceipt","outputs":[{"internalType":"bytes32","name":"","type":"bytes32"}],"stateMutability":"view","type":"function"}],"evm":{"bytecode":{"linkReferences":{},"object":"608060405234801561000f575f80fd5b506103418061001d5f395ff3fe608060405234801561000f575f80fd5b5060043610610055575f3560e01c80630858c3591461005957806336e98bfe1461008b5780634f0b5801146100bd578063a74c6a6b146100de578063eecdf927146100f1575b5f80fd5b6100786100673660046102d4565b5f9081526020819052604090205490565b6040519081526020015b60405180910390f35b6100ad6100993660046102d4565b5f9081526001602052604090205460ff1690565b6040519015158152602001610082565b6100ad6100cb3660046102d4565b5f90815260208190526040902054151590565b6100786100ec3660046102eb565b610104565b6100786100ff3660046102d4565b6102c3565b5f816101495760405162461bcd60e51b815260206004820152600f60248201526e125b9d985b1a59081cdd589a9958dd608a1b60448201526064015b60405180910390fd5b5f83815260208190526040902054156101a45760405162461bcd60e51b815260206004820152601860248201527f5265636569707420616c726561647920616e63686f72656400000000000000006044820152606401610140565b5f8281526001602052604090205460ff16156102025760405162461bcd60e51b815260206004820152601860248201527f5375626a65637420616c726561647920616e63686f72656400000000000000006044820152606401610140565b5f83815260208181526040808320859055848352600180835292819020805460ff1916909317909255815190810185905290810183905233606090811b6bffffffffffffffffffffffff19169082015243607482015260940160408051601f19818403018152828252805160209182012086845290830185905290820181905233606083015242608083015291507f48e940b7937acfd854b9cf9a6580f86a4698c2ccf5da0a289078e831397244ce9060a00160405180910390a192915050565b5f6102ce8283610104565b92915050565b5f602082840312156102e4575f80fd5b5035919050565b5f80604083850312156102fc575f80fd5b5050803592602090910135915056fea2646970667358221220f03cdb192492a3a1599362fb919141f079718eff5cae1770d94e49a2518baa7b64736f6c63430008180033","opcodes":"PUSH1 0x80 PUSH1 0x40 MSTORE CALLVALUE DUP1 ISZERO PUSH2 0xF JUMPI PUSH0 DUP1 REVERT JUMPDEST POP PUSH2 0x341 DUP1 PUSH2 0x1D PUSH0 CODECOPY PUSH0 RETURN INVALID PUSH1 0x80 PUSH1 0x40 MSTORE CALLVALUE DUP1 ISZERO PUSH2 0xF JUMPI PUSH0 DUP1 REVERT JUMPDEST POP PUSH1 0x4 CALLDATASIZE LT PUSH2 0x55 JUMPI PUSH0 CALLDATALOAD PUSH1 0xE0 SHR DUP1 PUSH4 0x858C359 EQ PUSH2 0x59 JUMPI DUP1 PUSH4 0x36E98BFE EQ PUSH2 0x8B JUMPI DUP1 PUSH4 0x4F0B5801 EQ PUSH2 0xBD JUMPI DUP1 PUSH4 0xA74C6A6B EQ PUSH2 0xDE JUMPI DUP1 PUSH4 0xEECDF927 EQ PUSH2 0xF1 JUMPI JUMPDEST PUSH0 DUP1 REVERT JUMPDEST PUSH2 0x78 PUSH2 0x67 CALLDATASIZE PUSH1 0x4 PUSH2 0x2D4 JUMP JUMPDEST PUSH0 SWAP1 DUP2 MSTORE PUSH1 0x20 DUP2 SWAP1 MSTORE PUSH1 0x40 SWAP1 KECCAK256 SLOAD SWAP1 JUMP JUMPDEST PUSH1 0x40 MLOAD SWAP1 DUP2 MSTORE PUSH1 0x20 ADD JUMPDEST PUSH1 0x40 MLOAD DUP1 SWAP2 SUB SWAP1 RETURN JUMPDEST PUSH2 0xAD PUSH2 0x99 CALLDATASIZE PUSH1 0x4 PUSH2 0x2D4 JUMP JUMPDEST PUSH0 SWAP1 DUP2 MSTORE PUSH1 0x1 PUSH1 0x20 MSTORE PUSH1 0x40 SWAP1 KECCAK256 SLOAD PUSH1 0xFF AND SWAP1 JUMP JUMPDEST PUSH1 0x40 MLOAD SWAP1 ISZERO ISZERO DUP2 MSTORE PUSH1 0x20 ADD PUSH2 0x82 JUMP JUMPDEST PUSH2 0xAD PUSH2 0xCB CALLDATASIZE PUSH1 0x4 PUSH2 0x2D4 JUMP JUMPDEST PUSH0 SWAP1 DUP2 MSTORE PUSH1 0x20 DUP2 SWAP1 MSTORE PUSH1 0x40 SWAP1 KECCAK256 SLOAD ISZERO ISZERO SWAP1 JUMP JUMPDEST PUSH2 0x78 PUSH2 0xEC CALLDATASIZE PUSH1 0x4 PUSH2 0x2EB JUMP JUMPDEST PUSH2 0x104 JUMP JUMPDEST PUSH2 0x78 PUSH2 0xFF CALLDATASIZE PUSH1 0x4 PUSH2 0x2D4 JUMP JUMPDEST PUSH2 0x2C3 JUMP JUMPDEST PUSH0 DUP2 PUSH2 0x149 JUMPI PUSH1 0x40 MLOAD PUSH3 0x461BCD PUSH1 0xE5 SHL DUP2 MSTORE PUSH1 0x20 PUSH1 0x4 DUP3 ADD MSTORE PUSH1 0xF PUSH1 0x24 DUP3 ADD MSTORE PUSH15 0x125B9D985B1A59081CDD589A9958DD PUSH1 0x8A SHL PUSH1 0x44 DUP3 ADD MSTORE PUSH1 0x64 ADD JUMPDEST PUSH1 0x40 MLOAD DUP1 SWAP2 SUB SWAP1 REVERT JUMPDEST PUSH0 DUP4 DUP2 MSTORE PUSH1 0x20 DUP2 SWAP1 MSTORE PUSH1 0x40 SWAP1 KECCAK256 SLOAD ISZERO PUSH2 0x1A4 JUMPI PUSH1 0x40 MLOAD PUSH3 0x461BCD PUSH1 0xE5 SHL DUP2 MSTORE PUSH1 0x20 PUSH1 0x4 DUP3 ADD MSTORE PUSH1 0x18 PUSH1 0x24 DUP3 ADD MSTORE PUSH32 0x5265636569707420616C726561647920616E63686F7265640000000000000000 PUSH1 0x44 DUP3 ADD MSTORE PUSH1 0x64 ADD PUSH2 0x140 JUMP JUMPDEST PUSH0 DUP3 DUP2 MSTORE PUSH1 0x1 PUSH1 0x20 MSTORE PUSH1 0x40 SWAP1 KECCAK256 SLOAD PUSH1 0xFF AND ISZERO PUSH2 0x202 JUMPI PUSH1 0x40 MLOAD PUSH3 0x461BCD PUSH1 0xE5 SHL DUP2 MSTORE PUSH1 0x20 PUSH1 0x4 DUP3 ADD MSTORE PUSH1 0x18 PUSH1 0x24 DUP3 ADD MSTORE PUSH32 0x5375626A65637420616C726561647920616E63686F7265640000000000000000 PUSH1 0x44 DUP3 ADD MSTORE PUSH1 0x64 ADD PUSH2 0x140 JUMP JUMPDEST PUSH0 DUP4 DUP2 MSTORE PUSH1 0x20 DUP2 DUP2 MSTORE PUSH1 0x40 DUP1 DUP4 KECCAK256 DUP6 SWAP1 SSTORE DUP5 DUP4 MSTORE PUSH1 0x1 DUP1 DUP4 MSTORE SWAP3 DUP2 SWAP1 KECCAK256 DUP1 SLOAD PUSH1 0xFF NOT AND SWAP1 SWAP4 OR SWAP1 SWAP3 SSTORE DUP2 MLOAD SWAP1 DUP2 ADD DUP6 SWAP1 MSTORE SWAP1 DUP2 ADD DUP4 SWAP1 MSTORE CALLER PUSH1 0x60 SWAP1 DUP2 SHL PUSH12 0xFFFFFFFFFFFFFFFFFFFFFFFF NOT AND SWAP1 DUP3 ADD MSTORE NUMBER PUSH1 0x74 DUP3 ADD MSTORE PUSH1 0x94 ADD PUSH1 0x40 DUP1 MLOAD PUSH1 0x1F NOT DUP2 DUP5 SUB ADD DUP2 MSTORE DUP3 DUP3 MSTORE DUP1 MLOAD PUSH1 0x20 SWAP2 DUP3 ADD KECCAK256 DUP7 DUP5 MSTORE SWAP1 DUP4 ADD DUP6 SWAP1 MSTORE SWAP1 DUP3 ADD DUP2 SWAP1 MSTORE CALLER PUSH1 0x60 DUP4 ADD MSTORE TIMESTAMP PUSH1 0x80 DUP4 ADD MSTORE SWAP2 POP PUSH32 0x48E940B7937ACFD854B9CF9A6580F86A4698C2CCF5DA0A289078E831397244CE SWAP1 PUSH1 0xA0 ADD PUSH1 0x40 MLOAD DUP1 SWAP2 SUB SWAP1 LOG1 SWAP3 SWAP2 POP POP JUMP JUMPDEST PUSH0 PUSH2 0x2CE DUP3 DUP4 PUSH2 0x104 JUMP JUMPDEST SWAP3 SWAP2 POP POP JUMP JUMPDEST PUSH0 PUSH1 0x20 DUP3 DUP5 SUB SLT ISZERO PUSH2 0x2E4 JUMPI PUSH0 DUP1 REVERT JUMPDEST POP CALLDATALOAD SWAP2 SWAP1 POP JUMP JUMPDEST PUSH0 DUP1 PUSH1 0x40 DUP4 DUP6 SUB SLT ISZERO PUSH2 0x2FC JUMPI PUSH0 DUP1 REVERT JUMPDEST POP POP DUP1 CALLDATALOAD SWAP3 PUSH1 0x20 SWAP1 SWAP2 ADD CALLDATALOAD SWAP2 POP JUMP INVALID LOG2 PUSH5 0x6970667358 0x22 SLT KECCAK256 CREATE EXTCODECOPY 0xDB NOT 0x24 SWAP3 LOG3 LOG1 MSIZE SWAP4 PUSH3 0xFB9191 COINBASE CREATE PUSH26 0x718EFF5CAE1770D94E49A2518BAA7B64736F6C63430008180033 "},"methodIdentifiers":{"anchor(bytes32)":"eecdf927","anchorWithSubject(bytes32,bytes32)":"a74c6a6b","isAnchored(bytes32)":"4f0b5801","isSubjectAnchored(bytes32)":"36e98bfe","subjectForReceipt(bytes32)":"0858c359"}}}}}